:100000000C943A010C946B010C946B010C946B01F1
:100010000C946B010C946B010C946B010C946B01B0
:100020000C946B010C946B010C946B010C946B01A0
:100030000C946B010C946B010C946B010C946B0190
:100040000C946B010C946B010C946B010C946B0180
:100050000C946B010C946B010C946B010C94E204F6
:100060000C946B010C9456050C942C050C946B01AC
:100070000C946B010C946B010C946B010C946B0150
:100080000C946B010C946B010C946B010C946B0140
:100090000C946B010C946B010C946B010C946B0130
:1000A0000C946B010C946B010C946B010C946B0120
:1000B0000C946B010C946B010C946B010C946B0110
:1000C0000C946B010C946B010C946B010C946B0100
:1000D0000C946B010C946B010C946B010C946B01F0
:1000E0000C946B01DA01DD01CC01D001D4011402C2
:1000F000E101E501EB01EF01F301F901FD0101026D
:10010000140207020B020F020C945C070C94CC0142
:100110000C94D0010C9471020C944E020C940B02BE
:100120000C94F9010C945D020C9414020C940403D9
:100130000C940F020C94B7020C94D4010C94F301AC
:100140000C9401020C94DD010C94E1010C947F02EB
:100150000C94EB010C94FD010C94EF010C94E5015F
:100160000C9407020C945F030C94DA0100000A0B54
:1001700002090C0D0E080703040100000000000036
:10018000000000000000000000000000000000006F
:10019000000000000000000012111000000000002C
:1001A000000000000000000000000000000000004F
:1001B000000000002200250028002B002E00310046
:1001C000340002010000050108010B0100002100BC
:1001D000240027002A002D00300033000101000018
:1001E000040107010A0105050505070508080808B7
:1001F000020202020A0A08080404040401010101BF
:1002000001010101030303030303030304070707B9
:100210000C0C0C0C0C0C0C0C02020202060606065E
:10022000060606060B0B0B0B0B0B0B0B010210202B
:10023000200808102040102040800201020108041C
:1002400002010102040810204080804020100804B0
:100250000201800402018040201008040201080409
:10026000020101020408102040800102040810204D
:1002700040805C0711241FBECFEFD1E2DEBFCDBFAF
:1002800000E00CBF12E0A0E0B2E0EAE2F4E100E03E
:100290000BBF02C007900D92A236B107D9F723E039
:1002A000A2E6B2E001C01D92AC31B207E1F711E065
:1002B000CAE3D1E000E006C021970109802FFE01CA
:1002C0000E94060AC933D10780E00807A9F70E94F7
:1002D0008C050C94130A0C94000090E0FC01E45D82
:1002E000FD4F2491FC01EA51FE4F8491882399F03F
:1002F00090E0880F991FFC01E453FE4FA591B49143
:10030000FC01EE54FE4F859194918FB7F894EC91D7
:10031000E22BEC938FBF0895863308F086539091BB
:100320007B00282F2870977F922B90937B008770FB
:10033000806480937C0080917A00806480937A004E
:1003400080917A0086FDFCCF809178002091790021
:1003500090E0922B0895362F90E0FC01E459FE4F77
:100360004491FC01E45DFD4F2491FC01EA51FE4FF4
:100370009491992309F46CC0442309F455C050E0CA
:10038000FA013197E231F10508F04EC08827EE58A6
:10039000FF4F8F4F0C94060A809180008F7707C023
:1003A000809180008F7D03C080918000877F809343
:1003B00080003AC084B58F7702C084B58F7D84BD3C
:1003C00033C08091B0008F7703C08091B0008F7DE3
:1003D0008093B00029C0809190008F7707C08091F2
:1003E00090008F7D03C080919000877F8093900064
:1003F0001BC08091A0008F7707C08091A0008F7DE7
:1004000003C08091A000877F8093A0000DC08091E1
:1004100020018F7707C0809120018F7D03C08091DC
:100420002001877F80932001E92FF0E0EE0FFF1F6E
:10043000EE54FE4FA591B4919FB7F894311104C0CA
:100440008C912095282302C0EC912E2B2C939FBFDA
:1004500008953FB7F89480917B0290917C02A0911F
:100460007D02B0917E0226B5A89B05C02F3F19F0F2
:100470000196A11DB11D3FBFBA2FA92F982F882724
:10048000820F911DA11DB11DBC01CD0142E0660F7F
:10049000771F881F991F4A95D1F70895FC01538D46
:1004A000448D252F30E0842F90E0821B930B54174E
:1004B00010F0CF96089501970895FC01918D828DDB
:1004C000981761F0828DDF01A80FB11D5D968C91A8
:1004D000928D9F5F9F73928F90E008958FEF9FEFB3
:1004E0000895FC01918D828D981731F0828DE80F6F
:1004F000F11D858D90E008958FEF9FEF0895FC0129
:10050000918D228D892F90E0805C9F4F821B9109F5
:100510008F73992708958FE792E00E947F0221E070
:10052000892B09F420E0822F0895FC01848DDF01DE
:10053000A80FB11DA35ABF4F2C91848D90E0019656
:100540008F739927848FA689B7892C93A089B18945
:100550008C91837080648C93938D848D981306C0E6
:100560000288F389E02D80818F7D80830895EF924A
:10057000FF920F931F93CF93DF93EC0181E0888F5D
:100580009B8D8C8D981305C0E889F989808185FD44
:1005900026C0F62E0B8D10E00F5F1F4F0F73112733
:1005A000E02E8C8DE8120CC00FB607FCFACFE8895C
:1005B000F989808185FFF5CFCE010E949502F1CFA8
:1005C0008B8DFE01E80FF11DE35AFF4FF0829FB7BC
:1005D000F8940B8FEA89FB89808180620AC09FB7FB
:1005E000F894EE89FF896083E889F98980818370B6
:1005F000806480839FBF81E090E0DF91CF911F9165
:100600000F91FF90EF900895CF93DF93EC01888DC9
:100610008823C9F0EA89FB89808185FD05C0A88906
:10062000B9898C9186FD0FC00FB607FCF5CF80818C
:1006300085FFF2CFA889B9898C9185FFEDCFCE01D6
:100640000E949502E7CFDF91CF91089580E090E07E
:10065000892B21F00E948B02811125C080E090E05F
:10066000892B41F080E090E0892B21F00E9400006E
:1006700081111CC080E090E0892B41F080E090E087
:10068000892B21F00E940000811113C080E090E0CE
:10069000892BA1F080E090E0892B81F00E9400007E
:1006A00081110AC008950E940000D8CF0E94000066
:1006B000E1CF0E940000EACF0C9400000895CF9291
:1006C000DF92EF92FF920F931F93CF93DF936C0112
:1006D0007A018B01C0E0D0E0CE15DF0581F0D801B2
:1006E0006D918D01D601ED91FC910190F081E02D8D
:1006F000C6011995892B11F02196EECF7E01C70115
:10070000DF91CF911F910F91FF90EF90DF90CF90ED
:100710000895089580E090E00895009769F0FC0145
:1007200001900020E9F73197AF01481B590BBC013C
:100730008FE792E00C945F0380E090E008958F9241
:100740009F92AF92BF920F931F93CF93DF93CDB73A
:10075000DEB7A1970FB6F894DEBF0FBECDBF19A2CA
:10076000423008F44AE08E010F5D1F4F842E912C19
:10077000A12CB12CA50194010E94C509E62FB90155
:10078000CA0101501109EA3014F4E05D01C0E95CCE
:10079000D801EC93232B242B252B61F7C8010E9451
:1007A0008D03A1960FB6F894DEBF0FBECDBFDF91CB
:1007B000CF911F910F91BF90AF909F908F90089510
:1007C0008F929F92AF92BF92CF92DF92EF92FF9261
:1007D0000F931F93CF93DF936B017C01142F9B0129
:1007E000AC010E94C009882319F082E192E027C081
:1007F00046015701E894B7F82FEF3FEF4FE75FE767
:10080000C501B4010E94C00981110DC02FEF3FEF57
:100810004FE75FE7C501B4010E94F60718161CF404
:1008200086E192E00CC02FEF3FEF4FE75FE4C70196
:10083000B6010E944E09181684F48AE192E0DF9115
:10084000CF911F910F91FF90EF90DF90CF90BF90CD
:10085000AF909F908F900C948D032FEF3FEF4FE759
:100860005FECC701B6010E94F60787FDE6CF20E0E6
:1008700030E0A901C701B6010E94F60787FF0BC04F
:100880006DE28FE792E00E94B702EC01F7FAF09474
:10089000F7F8F09402C0C0E0D0E000E060E070E063
:1008A00080E09FE3101741F020E030E040E251E4A7
:1008B0000E94FB070F5FF6CFA70196010E948A07EF
:1008C0006B017C010E946D084B015C014AE00E94B3
:1008D0009F03C80FD91F1123B9F1C501B4010E94AC
:1008E0009C089B01AC01C701B6010E9489076B01FE
:1008F0007C016EE28FE792E00E94B702C80FD91F19
:1009000020E030E040E251E4C701B6010E94530903
:100910004B015C010E946D086B01E12CF12C4AE057
:10092000C701B6010E949F03C80FD91FC701B601B6
:100930000E949C089B01AC01C501B4010E9489077B
:100940006B017C011150E1F6CE01DF91CF911F9137
:100950000F91FF90EF90DF90CF90BF90AF909F905E
:100960008F900895CF92DF92EF92FF92CF93DF9313
:100970006B017C0197FF13C06DE28FE792E00E944C
:10098000B702EC0166277727CB016C197D098E0928
:100990009F094AE00E949F03C80FD91F04C04AE084
:1009A0000E949F03EC018EE192E00E948D038C0F68
:1009B0009D1FDF91CF91FF90EF90DF90CF90089532
:1009C0000E940E0A1F920F920FB60F9211242F93BE
:1009D0003F938F939F93AF93BF93809177029091B2
:1009E0007802A0917902B0917A023091760223E0E8
:1009F000230F2D3720F40196A11DB11D05C026E857
:100A0000230F0296A11DB11D2093760280937702D9
:100A100090937802A0937902B0937A0280917B023E
:100A200090917C02A0917D02B0917E020196A11D61
:100A3000B11D80937B0290937C02A0937D02B093C2
:100A40007E02BF91AF919F918F913F912F910F9017
:100A50000FBE0F901F9018951F920F920FB60F9216
:100A600011240BB60F922F933F934F935F936F9385
:100A70007F938F939F93AF93BF93EF93FF938FE7F2
:100A800092E00E949502FF91EF91BF91AF919F91EB
:100A90008F917F916F915F914F913F912F910F9027
:100AA0000BBE0F900FBE0F901F9018951F920F92C4
:100AB0000FB60F9211240BB60F922F938F939F9323
:100AC000EF93FF93E0918F02F09190028081E0918B
:100AD0009502F091960282FD12C090818091980259
:100AE0008F5F8F7320919902821751F0E0919802E5
:100AF000F0E0E158FD4F958F8093980201C080810E
:100B0000FF91EF919F918F912F910F900BBE0F90BE
:100B10000FBE0F901F901895789484B5826084BDA5
:100B200084B5816084BD85B5826085BD85B58160F1
:100B300085BD80916E00816080936E00109281006F
:100B4000809181008260809381008091810081602A
:100B500080938100809180008160809380008091EB
:100B6000B10084608093B1008091B0008160809377
:100B7000B0008091910082608093910080919100FB
:100B800081608093910080919000816080939000BB
:100B90008091A10082608093A1008091A10081607A
:100BA0008093A1008091A00081608093A00080913B
:100BB00021018260809321018091210181608093D5
:100BC00021018091200181608093200180917A0031
:100BD000846080937A0080917A00826080937A00AA
:100BE00080917A00816080937A0080917A00806899
:100BF00080937A001092C100E0918F02F0919002F0
:100C000082E08083E0918B02F0918C021082E0916F
:100C10008D02F0918E028FEC808310929702E0910A
:100C20009302F091940286E08083E0919102F0912A
:100C30009202808180618083E0919102F091920222
:100C4000808188608083E0919102F091920280819E
:100C500080688083E0919102F091920280818F7D83
:100C6000808386E00E946D0187E00E946D0161E053
:100C700086E00E94AB0160E087E00E94AB0186E362
:100C80000E948C01092E000CAA0BBB0B8093620200
:100C900090936302A0936402B093650281E292E0B4
:100CA0000E948D03609162027091630280916402E0
:100CB000909165020E94B20490E1C92E97E2D92E6C
:100CC000E12CF12CC0E1D7E286E30E948C01092ED1
:100CD000000CAA0BBB0B4091720250917302609101
:100CE000740270917502840F951FA61FB71F809321
:100CF000720290937302A0937402B093750287E31B
:100D00000E948C01092E000CAA0BBB0B40916E02B5
:100D100050916F026091700270917102840F951F63
:100D2000A61FB71F80936E0290936F02A09370026C
:100D3000B0937102219741F685E392E00E948D0302
:100D400060917202709173028091740290917502A9
:100D50000E94B20483E492E00E948D0360916E02CF
:100D600070916F0280917002909171020E94B204A2
:100D70006091720270917302809174029091750279
:100D8000A70196010E94E709CA01B9010E949E08C5
:100D900060936A0270936B0280936C0290936D0271
:100DA00060916E0270916F02809170029091710259
:100DB000A70196010E94E709CA01B9010E949E0895
:100DC0006093660270936702809368029093690251
:100DD00081E592E00E948D0360916A0270916B023E
:100DE00080916C0290916D0242E00E94E0038EE1DE
:100DF00092E00E948D0389E592E00E948D0360914C
:100E0000660270916702809168029091690242E0E7
:100E10000E94E0038EE192E00E948D038EE192E059
:100E20000E948D030E9429024B015C0188EE482E2E
:100E300083E0582E612C712C0E942902DC01CB0129
:100E400088199909AA09BB09883E9340A105B105F3
:100E500098F321E0421A51086108710888EE880E63
:100E600083E0981EA11CB11C41145104610471045B
:100E700019F710927202109273021092740210927B
:100E8000750210926E0210926F0210927002109210
:100E9000710210926A0210926B0210926C02109210
:100EA0006D02109266021092670210926802109210
:100EB00069020E94260306CFEFE7F2E01382128256
:100EC00088EE93E0A0E0B0E084839583A683B783A7
:100ED00084E092E09183808385EC90E0958784871D
:100EE00084EC90E09787868780EC90E0918B808BF4
:100EF00081EC90E0938B828B82EC90E0958B848BDD
:100F000086EC90E0978B868B118E128E138E148E4A
:100F100008955058BB27AA270E94A1070C941409D2
:100F20000E94060938F00E940D0920F039F49F3F15
:100F300019F426F40C9403090EF4E095E7FB0C94E5
:100F4000FD08E92F0E94250958F3BA1762077307B5
:100F50008407950720F079F4A6F50C9447090EF460
:100F6000E0950B2EBA2FA02D0B01B90190010C01B9
:100F7000CA01A0011124FF27591B99F0593F50F4D1
:100F8000503E68F11A16F040A22F232F342F442729
:100F9000585FF3CF469537952795A795F040539521
:100FA000C9F77EF41F16BA0B620B730B840BBAF0F1
:100FB0009150A1F0FF0FBB1F661F771F881FC2F75C
:100FC0000EC0BA0F621F731F841F48F48795779570
:100FD0006795B795F7959E3F08F0B0CF9395880F2A
:100FE00008F09927EE0F9795879508950E94D908E4
:100FF00008F481E008950E940F080C9414090E94DF
:101000000D0958F00E94060940F029F45F3F29F0CD
:101010000C94FD0851110C9448090C9403090E948A
:10102000250968F39923B1F3552391F3951B550BCB
:10103000BB27AA2762177307840738F09F5F5F4FAB
:10104000220F331F441FAA1FA9F335D00E2E3AF0EA
:10105000E0E832D091505040E695001CCAF72BD002
:10106000FE2F29D0660F771F881FBB1F2617370753
:101070004807AB07B0E809F0BB0B802DBF01FF2785
:1010800093585F4F3AF09E3F510578F00C94FD085D
:101090000C9448095F3FE4F3983ED4F38695779526
:1010A0006795B795F7959F5FC9F7880F911D96953E
:1010B000879597F90895E1E0660F771F881FBB1F9A
:1010C000621773078407BA0720F0621B730B840B47
:1010D000BA0BEE1F88F7E09508950E942D0988F05D
:1010E0009F5798F0B92F9927B751B0F0E1F0660FEC
:1010F000771F881F991F1AF0BA95C9F714C0B1302D
:1011000091F00E944709B1E008950C944709672FB8
:10111000782F8827B85F39F0B93FCCF3869577955B
:101120006795B395D9F73EF4909580957095619544
:101130007F4F8F4F9F4F0895E89409C097FB3EF46F
:1011400090958095709561957F4F8F4F9F4F992314
:10115000A9F0F92F96E9BB279395F6958795779592
:101160006795B795F111F8CFFAF4BB0F11F460FF52
:101170001BC06F5F7F4F8F4F9F4F16C0882311F0AA
:1011800096E911C0772321F09EE8872F762F05C0BE
:10119000662371F096E8862F70E060E02AF09A9559
:1011A000660F771F881FDAF7880F9695879597F94E
:1011B0000895990F0008550FAA0BE0E8FEEF1616E8
:1011C0001706E807F907C0F012161306E407F5073B
:1011D00098F0621B730B840B950B39F40A2661F0AF
:1011E000232B242B252B21F408950A2609F4A14052
:1011F000A6958FEF811D811D089597F99F6780E85F
:1012000070E060E008959FEF80EC089500240A9458
:101210001616170618060906089500240A941216D1
:101220001306140605060895092E0394000C11F404
:10123000882352F0BB0F40F4BF2B11F460FF04C0B1
:101240006F5F7F4F8F4F9F4F089557FD9058440F0A
:10125000551F59F05F3F71F04795880F97FB991F15
:1012600061F09F3F79F087950895121613061406D2
:10127000551FF2CF4695F1DF08C01616170618065F
:10128000991FF1CF86957105610508940895E8943A
:10129000BB2766277727CB0197F908950E94D908C5
:1012A00008F48FEF08950E9466090C9414090E94B7
:1012B000060938F00E940D0920F0952311F00C94D6
:1012C000FD080C94030911240C9448090E94250977
:1012D00070F3959FC1F3950F50E0551F629FF00189
:1012E000729FBB27F00DB11D639FAA27F00DB11DA2
:1012F000AA1F649F6627B00DA11D661F829F22272B
:10130000B00DA11D621F739FB00DA11D621F839FB1
:10131000A00D611D221F749F3327A00D611D231F87
:10132000849F600D211D822F762F6A2F11249F57D5
:1013300050409AF0F1F088234AF0EE0FFF1FBB1FD8
:10134000661F771F881F91505040A9F79E3F510597
:1013500080F00C94FD080C9448095F3FE4F3983E3C
:10136000D4F3869577956795B795F795E7959F5F41
:10137000C1F7FE2B880F911D9695879597F90895D3
:101380000E94D908880B990B0895A1E21A2EAA1B76
:10139000BB1BFD010DC0AA1FBB1FEE1FFF1FA21725
:1013A000B307E407F50720F0A21BB30BE40BF50B22
:1013B000661F771F881F991F1A9469F760957095AB
:1013C000809590959B01AC01BD01CF010895052E3C
:1013D00097FB1EF400940E94FE0957FD07D00E945F
:1013E000C50907FC03D04EF40C94FE0950954095B6
:1013F000309521953F4F4F4F5F4F089590958095C1
:10140000709561957F4F8F4F9F4F0895EE0FFF1F8F
:10141000881F8BBF0790F691E02D199481E090E032
:0A142000F8940C94130AF894FFCF1F
:10142A0000000000B7025F034E0204037F025D0260
:10143A0071026E616E00696E66006F7666000D0A53
:10144A0000456A656D706C6F206465207072756501
:10145A0062613A2000456A65205820544F54414C35
:10146A003A2000456A65205A20544F54414C3A208C
:10147A0000456A6520583A2000456A65205A3A2094
:02148A00000060
:00000001FF
